{
  "_format": "hh-sol-artifact-1",
  "contractName": "Server",
  "sourceName": "contracts/server/Server.sol",
  "abi": [
    {
      "inputs": [
        {
          "internalType": "address",
          "name": "_lzEndpoint",
          "type": "address"
        },
        {
          "internalType": "address",
          "name": "_oracle",
          "type": "address"
        },
        {
          "internalType": "uint256",
          "name": "_treasuryP",
          "type": "uint256"
        }
      ],
      "stateMutability": "nonpayable",
      "type": "constructor"
    },
    {
      "anonymous": false,
      "inputs": [
        {
          "indexed": false,
          "internalType": "uint256",
          "name": "clientId",
          "type": "uint256"
        },
        {
          "indexed": false,
          "internalType": "uint16",
          "name": "chainId",
          "type": "uint16"
        },
        {
          "indexed": false,
          "internalType": "address",
          "name": "user",
          "type": "address"
        },
        {
          "indexed": false,
          "internalType": "uint256",
          "name": "amount",
          "type": "uint256"
        }
      ],
      "name": "Borrow",
      "type": "event"
    },
    {
      "anonymous": false,
      "inputs": [
        {
          "indexed": false,
          "internalType": "uint16",
          "name": "chainIdA",
          "type": "uint16"
        },
        {
          "indexed": false,
          "internalType": "uint16",
          "name": "chainIdB",
          "type": "uint16"
        },
        {
          "indexed": false,
          "internalType": "string",
          "name": "symbolA",
          "type": "string"
        },
        {
          "indexed": false,
          "internalType": "string",
          "name": "symbolB",
          "type": "string"
        },
        {
          "indexed": false,
          "internalType": "uint256",
          "name": "clientId",
          "type": "uint256"
        }
      ],
      "name": "CreatePool",
      "type": "event"
    },
    {
      "anonymous": false,
      "inputs": [
        {
          "indexed": false,
          "internalType": "uint256",
          "name": "clientId",
          "type": "uint256"
        },
        {
          "indexed": false,
          "internalType": "uint16",
          "name": "chainId",
          "type": "uint16"
        },
        {
          "indexed": false,
          "internalType": "address",
          "name": "user",
          "type": "address"
        },
        {
          "indexed": false,
          "internalType": "uint256",
          "name": "amount",
          "type": "uint256"
        }
      ],
      "name": "Deposit",
      "type": "event"
    },
    {
      "anonymous": false,
      "inputs": [
        {
          "indexed": false,
          "internalType": "uint16",
          "name": "_srcChainId",
          "type": "uint16"
        },
        {
          "indexed": false,
          "internalType": "bytes",
          "name": "_srcAddress",
          "type": "bytes"
        },
        {
          "indexed": false,
          "internalType": "uint64",
          "name": "_nonce",
          "type": "uint64"
        },
        {
          "indexed": false,
          "internalType": "bytes",
          "name": "_payload",
          "type": "bytes"
        }
      ],
      "name": "MessageFailed",
      "type": "event"
    },
    {
      "anonymous": false,
      "inputs": [
        {
          "indexed": true,
          "internalType": "address",
          "name": "previousOwner",
          "type": "address"
        },
        {
          "indexed": true,
          "internalType": "address",
          "name": "newOwner",
          "type": "address"
        }
      ],
      "name": "OwnershipTransferred",
      "type": "event"
    },
    {
      "anonymous": false,
      "inputs": [
        {
          "indexed": false,
          "internalType": "uint256",
          "name": "clientId",
          "type": "uint256"
        },
        {
          "indexed": false,
          "internalType": "uint16",
          "name": "chainId",
          "type": "uint16"
        },
        {
          "indexed": false,
          "internalType": "address",
          "name": "user",
          "type": "address"
        },
        {
          "indexed": false,
          "internalType": "uint256",
          "name": "amountInterest",
          "type": "uint256"
        },
        {
          "indexed": false,
          "internalType": "uint256",
          "name": "amountBorrow",
          "type": "uint256"
        }
      ],
      "name": "Repay",
      "type": "event"
    },
    {
      "anonymous": false,
      "inputs": [
        {
          "indexed": false,
          "internalType": "uint16",
          "name": "_srcChainId",
          "type": "uint16"
        },
        {
          "indexed": false,
          "internalType": "bytes",
          "name": "_srcAddress",
          "type": "bytes"
        }
      ],
      "name": "SetTrustedRemote",
      "type": "event"
    },
    {
      "anonymous": false,
      "inputs": [
        {
          "indexed": false,
          "internalType": "uint256",
          "name": "clientId",
          "type": "uint256"
        },
        {
          "indexed": false,
          "internalType": "uint16",
          "name": "chainId",
          "type": "uint16"
        },
        {
          "indexed": false,
          "internalType": "address",
          "name": "user",
          "type": "address"
        },
        {
          "indexed": false,
          "internalType": "uint256",
          "name": "share",
          "type": "uint256"
        },
        {
          "indexed": false,
          "internalType": "uint256",
          "name": "amount",
          "type": "uint256"
        }
      ],
      "name": "Withdraw",
      "type": "event"
    },
    {
      "inputs": [],
      "name": "addFee",
      "outputs": [],
      "stateMutability": "payable",
      "type": "function"
    },
    {
      "inputs": [
        {
          "internalType": "uint256",
          "name": "clientId",
          "type": "uint256"
        }
      ],
      "name": "calculateInterestRate",
      "outputs": [
        {
          "internalType": "uint256",
          "name": "",
          "type": "uint256"
        }
      ],
      "stateMutability": "view",
      "type": "function"
    },
    {
      "inputs": [
        {
          "internalType": "uint256",
          "name": "clientId",
          "type": "uint256"
        },
        {
          "internalType": "address",
          "name": "user",
          "type": "address"
        },
        {
          "internalType": "bool",
          "name": "atob",
          "type": "bool"
        }
      ],
      "name": "checkHealth",
      "outputs": [
        {
          "internalType": "bool",
          "name": "",
          "type": "bool"
        }
      ],
      "stateMutability": "view",
      "type": "function"
    },
    {
      "inputs": [
        {
          "internalType": "uint256",
          "name": "",
          "type": "uint256"
        }
      ],
      "name": "clients",
      "outputs": [
        {
          "components": [
            {
              "internalType": "string",
              "name": "symbol",
              "type": "string"
            },
            {
              "internalType": "uint256",
              "name": "liquidity",
              "type": "uint256"
            },
            {
              "internalType": "uint256",
              "name": "usage",
              "type": "uint256"
            },
            {
              "internalType": "uint256",
              "name": "totalShare",
              "type": "uint256"
            }
          ],
          "internalType": "struct Server.PoolInfo",
          "name": "poolA",
          "type": "tuple"
        },
        {
          "components": [
            {
              "internalType": "string",
              "name": "symbol",
              "type": "string"
            },
            {
              "internalType": "uint256",
              "name": "liquidity",
              "type": "uint256"
            },
            {
              "internalType": "uint256",
              "name": "usage",
              "type": "uint256"
            },
            {
              "internalType": "uint256",
              "name": "totalShare",
              "type": "uint256"
            }
          ],
          "internalType": "struct Server.PoolInfo",
          "name": "poolB",
          "type": "tuple"
        },
        {
          "components": [
            {
              "internalType": "uint256",
              "name": "stableRate",
              "type": "uint256"
            },
            {
              "internalType": "uint256",
              "name": "pledgeRate",
              "type": "uint256"
            },
            {
              "internalType": "uint256",
              "name": "vRateK",
              "type": "uint256"
            },
            {
              "internalType": "uint256",
              "name": "vRateB",
              "type": "uint256"
            },
            {
              "internalType": "uint256",
              "name": "liqRate",
              "type": "uint256"
            },
            {
              "internalType": "uint256",
              "name": "liqDiscount",
              "type": "uint256"
            }
          ],
          "internalType": "struct Server.Config",
          "name": "config",
          "type": "tuple"
        },
        {
          "internalType": "uint16",
          "name": "chainIdA",
          "type": "uint16"
        },
        {
          "internalType": "uint16",
          "name": "chainIdB",
          "type": "uint16"
        },
        {
          "internalType": "uint256",
          "name": "interestPerBorrow",
          "type": "uint256"
        },
        {
          "internalType": "uint256",
          "name": "lastUpdateTime",
          "type": "uint256"
        }
      ],
      "stateMutability": "view",
      "type": "function"
    },
    {
      "inputs": [
        {
          "internalType": "uint16",
          "name": "chainIdA",
          "type": "uint16"
        },
        {
          "internalType": "uint16",
          "name": "chainIdB",
          "type": "uint16"
        },
        {
          "internalType": "string",
          "name": "symbolA",
          "type": "string"
        },
        {
          "internalType": "string",
          "name": "symbolB",
          "type": "string"
        }
      ],
      "name": "createPool",
      "outputs": [],
      "stateMutability": "nonpayable",
      "type": "function"
    },
    {
      "inputs": [
        {
          "internalType": "uint16",
          "name": "",
          "type": "uint16"
        },
        {
          "internalType": "bytes",
          "name": "",
          "type": "bytes"
        },
        {
          "internalType": "uint64",
          "name": "",
          "type": "uint64"
        }
      ],
      "name": "failedMessages",
      "outputs": [
        {
          "internalType": "bytes32",
          "name": "",
          "type": "bytes32"
        }
      ],
      "stateMutability": "view",
      "type": "function"
    },
    {
      "inputs": [
        {
          "internalType": "uint16",
          "name": "_srcChainId",
          "type": "uint16"
        },
        {
          "internalType": "bytes",
          "name": "_srcAddress",
          "type": "bytes"
        }
      ],
      "name": "forceResumeReceive",
      "outputs": [],
      "stateMutability": "nonpayable",
      "type": "function"
    },
    {
      "inputs": [
        {
          "internalType": "uint16",
          "name": "_version",
          "type": "uint16"
        },
        {
          "internalType": "uint16",
          "name": "_chainId",
          "type": "uint16"
        },
        {
          "internalType": "address",
          "name": "",
          "type": "address"
        },
        {
          "internalType": "uint256",
          "name": "_configType",
          "type": "uint256"
        }
      ],
      "name": "getConfig",
      "outputs": [
        {
          "internalType": "bytes",
          "name": "",
          "type": "bytes"
        }
      ],
      "stateMutability": "view",
      "type": "function"
    },
    {
      "inputs": [
        {
          "internalType": "uint16",
          "name": "_srcChainId",
          "type": "uint16"
        },
        {
          "internalType": "bytes",
          "name": "_srcAddress",
          "type": "bytes"
        }
      ],
      "name": "isTrustedRemote",
      "outputs": [
        {
          "internalType": "bool",
          "name": "",
          "type": "bool"
        }
      ],
      "stateMutability": "view",
      "type": "function"
    },
    {
      "inputs": [],
      "name": "lzEndpoint",
      "outputs": [
        {
          "internalType": "contract ILayerZeroEndpoint",
          "name": "",
          "type": "address"
        }
      ],
      "stateMutability": "view",
      "type": "function"
    },
    {
      "inputs": [
        {
          "internalType": "uint16",
          "name": "_srcChainId",
          "type": "uint16"
        },
        {
          "internalType": "bytes",
          "name": "_srcAddress",
          "type": "bytes"
        },
        {
          "internalType": "uint64",
          "name": "_nonce",
          "type": "uint64"
        },
        {
          "internalType": "bytes",
          "name": "_payload",
          "type": "bytes"
        }
      ],
      "name": "lzReceive",
      "outputs": [],
      "stateMutability": "nonpayable",
      "type": "function"
    },
    {
      "inputs": [],
      "name": "nextClientId",
      "outputs": [
        {
          "internalType": "uint256",
          "name": "",
          "type": "uint256"
        }
      ],
      "stateMutability": "view",
      "type": "function"
    },
    {
      "inputs": [
        {
          "internalType": "uint16",
          "name": "_srcChainId",
          "type": "uint16"
        },
        {
          "internalType": "bytes",
          "name": "_srcAddress",
          "type": "bytes"
        },
        {
          "internalType": "uint64",
          "name": "_nonce",
          "type": "uint64"
        },
        {
          "internalType": "bytes",
          "name": "_payload",
          "type": "bytes"
        }
      ],
      "name": "nonblockingLzReceive",
      "outputs": [],
      "stateMutability": "nonpayable",
      "type": "function"
    },
    {
      "inputs": [],
      "name": "oracle",
      "outputs": [
        {
          "internalType": "contract IOracle",
          "name": "",
          "type": "address"
        }
      ],
      "stateMutability": "view",
      "type": "function"
    },
    {
      "inputs": [],
      "name": "owner",
      "outputs": [
        {
          "internalType": "address",
          "name": "",
          "type": "address"
        }
      ],
      "stateMutability": "view",
      "type": "function"
    },
    {
      "inputs": [],
      "name": "renounceOwnership",
      "outputs": [],
      "stateMutability": "nonpayable",
      "type": "function"
    },
    {
      "inputs": [
        {
          "internalType": "uint16",
          "name": "_srcChainId",
          "type": "uint16"
        },
        {
          "internalType": "bytes",
          "name": "_srcAddress",
          "type": "bytes"
        },
        {
          "internalType": "uint64",
          "name": "_nonce",
          "type": "uint64"
        },
        {
          "internalType": "bytes",
          "name": "_payload",
          "type": "bytes"
        }
      ],
      "name": "retryMessage",
      "outputs": [],
      "stateMutability": "payable",
      "type": "function"
    },
    {
      "inputs": [
        {
          "internalType": "uint16",
          "name": "_version",
          "type": "uint16"
        },
        {
          "internalType": "uint16",
          "name": "_chainId",
          "type": "uint16"
        },
        {
          "internalType": "uint256",
          "name": "_configType",
          "type": "uint256"
        },
        {
          "internalType": "bytes",
          "name": "_config",
          "type": "bytes"
        }
      ],
      "name": "setConfig",
      "outputs": [],
      "stateMutability": "nonpayable",
      "type": "function"
    },
    {
      "inputs": [
        {
          "internalType": "uint16",
          "name": "_version",
          "type": "uint16"
        }
      ],
      "name": "setReceiveVersion",
      "outputs": [],
      "stateMutability": "nonpayable",
      "type": "function"
    },
    {
      "inputs": [
        {
          "internalType": "uint16",
          "name": "_version",
          "type": "uint16"
        }
      ],
      "name": "setSendVersion",
      "outputs": [],
      "stateMutability": "nonpayable",
      "type": "function"
    },
    {
      "inputs": [
        {
          "internalType": "uint16",
          "name": "_srcChainId",
          "type": "uint16"
        },
        {
          "internalType": "bytes",
          "name": "_srcAddress",
          "type": "bytes"
        }
      ],
      "name": "setTrustedRemote",
      "outputs": [],
      "stateMutability": "nonpayable",
      "type": "function"
    },
    {
      "inputs": [
        {
          "internalType": "uint256",
          "name": "clientId",
          "type": "uint256"
        },
        {
          "internalType": "uint256",
          "name": "_varRateK",
          "type": "uint256"
        },
        {
          "internalType": "uint256",
          "name": "_varRateB",
          "type": "uint256"
        },
        {
          "internalType": "uint256",
          "name": "_stableRate",
          "type": "uint256"
        },
        {
          "internalType": "uint256",
          "name": "_pledgeRate",
          "type": "uint256"
        },
        {
          "internalType": "uint256",
          "name": "_liqRate",
          "type": "uint256"
        },
        {
          "internalType": "uint256",
          "name": "_liqDiscount",
          "type": "uint256"
        }
      ],
      "name": "setupClient",
      "outputs": [],
      "stateMutability": "nonpayable",
      "type": "function"
    },
    {
      "inputs": [
        {
          "internalType": "address",
          "name": "newOwner",
          "type": "address"
        }
      ],
      "name": "transferOwnership",
      "outputs": [],
      "stateMutability": "nonpayable",
      "type": "function"
    },
    {
      "inputs": [],
      "name": "treasuryP",
      "outputs": [
        {
          "internalType": "uint256",
          "name": "",
          "type": "uint256"
        }
      ],
      "stateMutability": "view",
      "type": "function"
    },
    {
      "inputs": [
        {
          "internalType": "uint16",
          "name": "",
          "type": "uint16"
        }
      ],
      "name": "trustedRemoteLookup",
      "outputs": [
        {
          "internalType": "bytes",
          "name": "",
          "type": "bytes"
        }
      ],
      "stateMutability": "view",
      "type": "function"
    },
    {
      "inputs": [
        {
          "internalType": "address",
          "name": "",
          "type": "address"
        },
        {
          "internalType": "uint256",
          "name": "",
          "type": "uint256"
        }
      ],
      "name": "userInfos",
      "outputs": [
        {
          "internalType": "uint256",
          "name": "shareA",
          "type": "uint256"
        },
        {
          "internalType": "uint256",
          "name": "shareB",
          "type": "uint256"
        },
        {
          "internalType": "uint256",
          "name": "borrowedA",
          "type": "uint256"
        },
        {
          "internalType": "uint256",
          "name": "borrowedB",
          "type": "uint256"
        },
        {
          "internalType": "uint256",
          "name": "interestA",
          "type": "uint256"
        },
        {
          "internalType": "uint256",
          "name": "interestB",
          "type": "uint256"
        },
        {
          "internalType": "uint256",
          "name": "settleA",
          "type": "uint256"
        },
        {
          "internalType": "uint256",
          "name": "settleB",
          "type": "uint256"
        }
      ],
      "stateMutability": "view",
      "type": "function"
    },
    {
      "inputs": [
        {
          "internalType": "uint256",
          "name": "amount",
          "type": "uint256"
        }
      ],
      "name": "withdrawFee",
      "outputs": [],
      "stateMutability": "nonpayable",
      "type": "function"
    },
    {
      "stateMutability": "payable",
      "type": "receive"
    }
  ],
  "bytecode": "0x60a060405260016003553480156200001657600080fd5b50604051620055663803806200556683398181016040528101906200003c919062000256565b82806200005e62000052620000e560201b60201c565b620000ed60201b60201c565b8073ffffffffffffffffffffffffffffffffffffffff1660808173ffffffffffffffffffffffffffffffffffffffff1681525050505081600560006101000a81548173ffffffffffffffffffffffffffffffffffffffff021916908373ffffffffffffffffffffffffffffffffffffffff16021790555080600481905550505050620002b2565b600033905090565b60008060009054906101000a900473ffffffffffffffffffffffffffffffffffffffff169050816000806101000a81548173ffffffffffffffffffffffffffffffffffffffff021916908373ffffffffffffffffffffffffffffffffffffffff1602179055508173ffffffffffffffffffffffffffffffffffffffff168173ffffffffffffffffffffffffffffffffffffffff167f8be0079c531659141344cd1fd0a4f28419497f9722a3daafe3b4186f6b6457e060405160405180910390a35050565b600080fd5b600073ffffffffffffffffffffffffffffffffffffffff82169050919050565b6000620001e382620001b6565b9050919050565b620001f581620001d6565b81146200020157600080fd5b50565b6000815190506200021581620001ea565b92915050565b6000819050919050565b62000230816200021b565b81146200023c57600080fd5b50565b600081519050620002508162000225565b92915050565b600080600060608486031215620002725762000271620001b1565b5b6000620002828682870162000204565b9350506020620002958682870162000204565b9250506040620002a8868287016200023f565b9150509250925092565b6080516152606200030660003960008181610621015281816107d60152818161086c01528181610c3f015281816111ee0152818161134901528181611643015281816133db015261359c01526152606000f3fe6080604052600436106101845760003560e01c80637816e2ed116100d1578063c3d9fc561161008a578063eb8d72b711610064578063eb8d72b71461054d578063f2fde38b14610576578063f5ecbdbc1461059f578063f88af21d146105dc5761018b565b8063c3d9fc56146104df578063cbed8b9c14610508578063d1deba1f146105315761018b565b80637816e2ed146103cd5780637dc0d1d0146103f85780638da5cb5b1461042357806390d3b3791461044e578063b353aaa71461048b578063be357616146104b65761018b565b80633d8b38f61161013e5780635b8c41e6116101185780635b8c41e61461031357806366ad5c8a14610350578063715018a6146103795780637533d788146103905761018b565b80633d8b38f61461026957806342d65a8d146102a65780635a89b6ca146102cf5761018b565b80621d35671461019057806307e0db17146101b957806310ddb137146101e25780632f48f1511461020b578063320bba7514610215578063387e0c11146102405761018b565b3661018b57005b600080fd5b34801561019c57600080fd5b506101b760048036038101906101b29190613936565b61061f565b005b3480156101c557600080fd5b506101e060048036038101906101db91906139d5565b6107cc565b005b3480156101ee57600080fd5b50610209600480360381019061020491906139d5565b610862565b005b6102136108f8565b005b34801561022157600080fd5b5061022a6108fa565b6040516102379190613a1b565b60405180910390f35b34801561024c57600080fd5b5061026760048036038101906102629190613ad7565b610900565b005b34801561027557600080fd5b50610290600480360381019061028b9190613bd6565b610b61565b60405161029d9190613c51565b60405180910390f35b3480156102b257600080fd5b506102cd60048036038101906102c89190613bd6565b610c35565b005b3480156102db57600080fd5b506102f660048036038101906102f19190613cf6565b610cd1565b60405161030a989796959493929190613d36565b60405180910390f35b34801561031f57600080fd5b5061033a60048036038101906103359190613db4565b610d26565b6040516103479190613e3c565b60405180910390f35b34801561035c57600080fd5b5061037760048036038101906103729190613936565b610d6e565b005b34801561038557600080fd5b5061038e610df5565b005b34801561039c57600080fd5b506103b760048036038101906103b291906139d5565b610e09565b6040516103c49190613edf565b60405180910390f35b3480156103d957600080fd5b506103e2610ea9565b6040516103ef9190613a1b565b60405180910390f35b34801561040457600080fd5b5061040d610eaf565b60405161041a9190613f60565b60405180910390f35b34801561042f57600080fd5b50610438610ed5565b6040516104459190613f8a565b60405180910390f35b34801561045a57600080fd5b5061047560048036038101906104709190613fa5565b610efe565b6040516104829190613a1b565b60405180910390f35b34801561049757600080fd5b506104a06111ec565b6040516104ad9190613ff3565b60405180910390f35b3480156104c257600080fd5b506104dd60048036038101906104d89190613fa5565b611210565b005b3480156104eb57600080fd5b506105066004803603810190610501919061400e565b611262565b005b34801561051457600080fd5b5061052f600480360381019061052a91906140b0565b61133f565b005b61054b60048036038101906105469190613936565b6113e1565b005b34801561055957600080fd5b50610574600480360381019061056f9190613bd6565b611548565b005b34801561058257600080fd5b5061059d60048036038101906105989190614138565b6115bb565b005b3480156105ab57600080fd5b506105c660048036038101906105c19190614165565b61163f565b6040516105d39190613edf565b60405180910390f35b3480156105e857600080fd5b5061060360048036038101906105fe9190613fa5565b6116ff565b604051610616979695949392919061431d565b60405180910390f35b7f000000000000000000000000000000000000000000000000000000000000000073ffffffffffffffffffffffffffffffffffffffff1661065e611917565b73ffffffffffffffffffffffffffffffffffffffff16146106b4576040517f08c379a00000000000000000000000000000000000000000000000000000000081526004016106ab906143fc565b60405180910390fd5b6000600160008661ffff1661ffff16815260200190815260200160002080546106dc9061444b565b80601f01602080910402602001604051908101604052809291908181526020018280546107089061444b565b80156107555780601f1061072a57610100808354040283529160200191610755565b820191906000526020600020905b81548152906001019060200180831161073857829003601f168201915b505050505090508051845114801561077a575080805190602001208480519060200120145b6107b9576040517f08c379a00000000000000000000000000000000000000000000000000000000081526004016107b0906144ef565b60405180910390fd5b6107c58585858561191f565b5050505050565b6107d4611a3a565b7f000000000000000000000000000000000000000000000000000000000000000073ffffffffffffffffffffffffffffffffffffffff166307e0db17826040518263ffffffff1660e01b815260040161082d919061450f565b600060405180830381600087803b15801561084757600080fd5b505af115801561085b573d6000803e3d6000fd5b5050505050565b61086a611a3a565b7f000000000000000000000000000000000000000000000000000000000000000073ffffffffffffffffffffffffffffffffffffffff166310ddb137826040518263ffffffff1660e01b81526004016108c3919061450f565b600060405180830381600087803b1580156108dd57600080fd5b505af11580156108f1573d6000803e3d6000fd5b5050505050565b565b60045481565b610908611a3a565b6040518060e00160405280604051806080016040528085815260200160008152602001600081526020016000815250815260200160405180608001604052808481526020016000815260200160008152602001600081525081526020016040518060c001604052806000815260200160008152602001600081526020016000815260200160008152602001600081525081526020018561ffff1681526020018461ffff16815260200160008152602001600081525060066000600354815260200190815260200160002060008201518160000160008201518160000190805190602001906109f7929190613639565b5060208201518160010155604082015181600201556060820151816003015550506020820151816004016000820151816000019080519060200190610a3d929190613639565b506020820151816001015560408201518160020155606082015181600301555050604082015181600801600082015181600001556020820151816001015560408201518160020155606082015181600301556080820151816004015560a082015181600501555050606082015181600e0160006101000a81548161ffff021916908361ffff160217905550608082015181600e0160026101000a81548161ffff021916908361ffff16021790555060a082015181600f015560c082015181601001559050507fc84eedb99762f77e62e4b74c059ab1ea41b609a343f5315075f001e07e02784184848484600354604051610b3b959493929190614563565b60405180910390a160036000815480929190610b56906145f3565b919050555050505050565b600080600160008661ffff1661ffff1681526020019081526020016000208054610b8a9061444b565b80601f0160208091040260200160405190810160405280929190818152602001828054610bb69061444b565b8015610c035780601f10610bd857610100808354040283529160200191610c03565b820191906000526020600020905b815481529060010190602001808311610be657829003601f168201915b505050505090508383604051610c1a92919061466c565b60405180910390208180519060200120149150509392505050565b610c3d611a3a565b7f000000000000000000000000000000000000000000000000000000000000000073ffffffffffffffffffffffffffffffffffffffff166342d65a8d8484846040518463ffffffff1660e01b8152600401610c9a939291906146b2565b600060405180830381600087803b158015610cb457600080fd5b505af1158015610cc8573d6000803e3d6000fd5b50505050505050565b6007602052816000526040600020602052806000526040600020600091509150508060000154908060010154908060020154908060030154908060040154908060050154908060060154908060070154905088565b60026020528260005260406000208280516020810182018051848252602083016020850120818352809550505050505060205280600052604060002060009250925050505481565b3073ffffffffffffffffffffffffffffffffffffffff16610d8d611917565b73ffffffffffffffffffffffffffffffffffffffff1614610de3576040517f08c379a0000000000000000000000000000000000000000000000000000000008152600401610dda90614756565b60405180910390fd5b610def84848484611ab8565b50505050565b610dfd611a3a565b610e076000611abe565b565b60016020528060005260406000206000915090508054610e289061444b565b80601f0160208091040260200160405190810160405280929190818152602001828054610e549061444b565b8015610ea15780601f10610e7657610100808354040283529160200191610ea1565b820191906000526020600020905b815481529060010190602001808311610e8457829003601f168201915b505050505081565b60035481565b600560009054906101000a900473ffffffffffffffffffffffffffffffffffffffff1681565b60008060009054906101000a900473ffffffffffffffffffffffffffffffffffffffff16905090565b600080600660008481526020019081526020016000206040518060e001604052908160008201604051806080016040529081600082018054610f3f9061444b565b80601f0160208091040260200160405190810160405280929190818152602001828054610f6b9061444b565b8015610fb85780601f10610f8d57610100808354040283529160200191610fb8565b820191906000526020600020905b815481529060010190602001808311610f9b57829003601f168201915b5050505050815260200160018201548152602001600282015481526020016003820154815250508152602001600482016040518060800160405290816000820180546110039061444b565b80601f016020809104026020016040519081016040528092919081815260200182805461102f9061444b565b801561107c5780601f106110515761010080835404028352916020019161107c565b820191906000526020600020905b81548152906001019060200180831161105f57829003601f168201915b5050505050815260200160018201548152602001600282015481526020016003820154815250508152602001600882016040518060c001604052908160008201548152602001600182015481526020016002820154815260200160038201548152602001600482015481526020016005820154815250508152602001600e820160009054906101000a900461ffff1661ffff1661ffff168152602001600e820160029054906101000a900461ffff1661ffff1661ffff168152602001600f820154815260200160108201548152505090506000611172826020015160200151836000015160200151611b8290919063ffffffff16565b90506000611199836020015160400151846000015160400151611b8290919063ffffffff16565b90506111e26111cb836111bd84876040015160400151611b9890919063ffffffff16565b611bae90919063ffffffff16565b846040015160600151611b8290919063ffffffff16565b9350505050919050565b7f000000000000000000000000000000000000000000000000000000000000000081565b611218611a3a565b3373ffffffffffffffffffffffffffffffffffffffff166108fc829081150290604051600060405180830381858888f1935050505015801561125e573d6000803e3d6000fd5b5050565b61126a611a3a565b60035487106112ae576040517f08c379a00000000000000000000000000000000000000000000000000000000081526004016112a5906147c2565b60405180910390fd5b60006006600089815260200190815260200160002090506040518060c001604052808681526020018581526020018781526020018881526020018481526020018381525081600801600082015181600001556020820151816001015560408201518160020155606082015181600301556080820151816004015560a082015181600501559050505050505050505050565b611347611a3a565b7f000000000000000000000000000000000000000000000000000000000000000073ffffffffffffffffffffffffffffffffffffffff1663cbed8b9c86868686866040518663ffffffff1660e01b81526004016113a89594939291906147e2565b600060405180830381600087803b1580156113c257600080fd5b505af11580156113d6573d6000803e3d6000fd5b505050505050505050565b6000600260008661ffff1661ffff1681526020019081526020016000208460405161140c9190614861565b908152602001604051809103902060008467ffffffffffffffff1667ffffffffffffffff1681526020019081526020016000205490506000801b811415611488576040517f08c379a000000000000000000000000000000000000000000000000000000000815260040161147f906148ea565b60405180910390fd5b808280519060200120146114d1576040517f08c379a00000000000000000000000000000000000000000000000000000000081526004016114c89061497c565b60405180910390fd5b6000801b600260008761ffff1661ffff168152602001908152602001600020856040516114fe9190614861565b908152602001604051809103902060008567ffffffffffffffff1667ffffffffffffffff1681526020019081526020016000208190555061154185858585611ab8565b5050505050565b611550611a3a565b8181600160008661ffff1661ffff168152602001908152602001600020919061157a9291906136bf565b507ffa41487ad5d6728f0b19276fa1eddc16558578f5109fc39d2dc33c3230470dab8383836040516115ae939291906146b2565b60405180910390a1505050565b6115c3611a3a565b600073ffffffffffffffffffffffffffffffffffffffff168173ffffffffffffffffffffffffffffffffffffffff161415611633576040517f08c379a000000000000000000000000000000000000000000000000000000000815260040161162a90614a0e565b60405180910390fd5b61163c81611abe565b50565b60607f000000000000000000000000000000000000000000000000000000000000000073ffffffffffffffffffffffffffffffffffffffff1663f5ecbdbc868630866040518563ffffffff1660e01b81526004016116a09493929190614a2e565b60006040518083038186803b1580156116b857600080fd5b505afa1580156116cc573d6000803e3d6000fd5b505050506040513d6000823e3d601f19601f820116820180604052508101906116f59190614ae3565b9050949350505050565b6006602052806000526040600020600091509050806000016040518060800160405290816000820180546117329061444b565b80601f016020809104026020016040519081016040528092919081815260200182805461175e9061444b565b80156117ab5780601f10611780576101008083540402835291602001916117ab565b820191906000526020600020905b81548152906001019060200180831161178e57829003601f168201915b50505050508152602001600182015481526020016002820154815260200160038201548152505090806004016040518060800160405290816000820180546117f29061444b565b80601f016020809104026020016040519081016040528092919081815260200182805461181e9061444b565b801561186b5780601f106118405761010080835404028352916020019161186b565b820191906000526020600020905b81548152906001019060200180831161184e57829003601f168201915b50505050508152602001600182015481526020016002820154815260200160038201548152505090806008016040518060c001604052908160008201548152602001600182015481526020016002820154815260200160038201548152602001600482015481526020016005820154815250509080600e0160009054906101000a900461ffff169080600e0160029054906101000a900461ffff169080600f0154908060100154905087565b600033905090565b600060208201519050600160ff168160ff16141561196b576000806000848060200190518101906119509190614bb8565b9350935093505061196383898484611bc4565b505050611a33565b600260ff168160ff1614156119ae576000806000848060200190518101906119939190614bb8565b935093509350506119a683898484611dad565b505050611a32565b600460ff168160ff1614156119f1576000806000848060200190518101906119d69190614bb8565b935093509350506119e9838984846122a1565b505050611a31565b600360ff168160ff161415611a3057600080600084806020019051810190611a199190614bb8565b93509350935050611a2c838984846127ce565b5050505b5b5b5b5050505050565b611a42611917565b73ffffffffffffffffffffffffffffffffffffffff16611a60610ed5565b73ffffffffffffffffffffffffffffffffffffffff1614611ab6576040517f08c379a0000000000000000000000000000000000000000000000000000000008152600401611aad90614c6b565b60405180910390fd5b565b50505050565b60008060009054906101000a900473ffffffffffffffffffffffffffffffffffffffff169050816000806101000a81548173ffffffffffffffffffffffffffffffffffffffff021916908373ffffffffffffffffffffffffffffffffffffffff1602179055508173ffffffffffffffffffffffffffffffffffffffff168173ffffffffffffffffffffffffffffffffffffffff167f8be0079c531659141344cd1fd0a4f28419497f9722a3daafe3b4186f6b6457e060405160405180910390a35050565b60008183611b909190614c8b565b905092915050565b60008183611ba69190614ce1565b905092915050565b60008183611bbc9190614d6a565b905092915050565b60006006600086815260200190815260200160002090506000600760008573ffffffffffffffffffffffffffffffffffffffff1673ffffffffffffffffffffffffffffffffffffffff1681526020019081526020016000206000878152602001908152602001600020905060008083600e0160009054906101000a900461ffff1661ffff168761ffff161415611cc0578360000190506000816001015414611c9857611c938160010154611c85836003015488611b9890919063ffffffff16565b611bae90919063ffffffff16565b611c9a565b845b9150611cb3828460000154611b8290919063ffffffff16565b8360000181905550611d28565b8360040190506000816001015414611d0457611cff8160010154611cf1836003015488611b9890919063ffffffff16565b611bae90919063ffffffff16565b611d06565b845b9150611d1f828460010154611b8290919063ffffffff16565b83600101819055505b611d3f858260010154611b8290919063ffffffff16565b8160010181905550611d5e828260030154611b8290919063ffffffff16565b81600301819055507fdf6298135429e65b387e37548dae3f8c3601d8e6f09cdc6bcfea79eadcf5ad5488888888604051611d9b9493929190614d9b565b60405180910390a15050505050505050565b838260006006600084815260200190815260200160002090506000611de982600401600201548360000160020154611b8290919063ffffffff16565b1115611e6e576000611dfa84610efe565b9050611e64611e5162015180611e4361016d611e35611e26886010015442612d4d90919063ffffffff16565b87611b9890919063ffffffff16565b611bae90919063ffffffff16565b611bae90919063ffffffff16565b83600f0154611b8290919063ffffffff16565b82600f0181905550505b600073ffffffffffffffffffffffffffffffffffffffff168273ffffffffffffffffffffffffffffffffffffffff1614611fe4576000600760008473ffffffffffffffffffffffffffffffffffffffff1673ffffffffffffffffffffffffffffffffffffffff16815260200190815260200160002060008581526020019081526020016000209050611f57611f44670de0b6b3a7640000611f368460020154611f28866006015488600f0154612d4d90919063ffffffff16565b611b9890919063ffffffff16565b611bae90919063ffffffff16565b8260040154611b8290919063ffffffff16565b816004018190555081600f01548160060181905550611fcd611fba670de0b6b3a7640000611fac8460030154611f9e866007015488600f0154612d4d90919063ffffffff16565b611b9890919063ffffffff16565b611bae90919063ffffffff16565b8260050154611b8290919063ffffffff16565b816005018190555081600f01548160070181905550505b42816010018190555060006006600089815260200190815260200160002090506000600760008873ffffffffffffffffffffffffffffffffffffffff1673ffffffffffffffffffffffffffffffffffffffff16815260200190815260200160002060008a81526020019081526020016000209050600082600e0160009054906101000a900461ffff1661ffff168961ffff16141561212c57826000016001015461209e888560000160020154611b8290919063ffffffff16565b11156120df576040517f08c379a00000000000000000000000000000000000000000000000000000000081526004016120d690614e2c565b60405180910390fd5b6120f6878360020154611b8290919063ffffffff16565b8260020181905550612118878460000160020154611b8290919063ffffffff16565b8360000160020181905550600090506121d8565b826004016001015461214e888560040160020154611b8290919063ffffffff16565b111561218f576040517f08c379a000000000000000000000000000000000000000000000000000000000815260040161218690614e2c565b60405180910390fd5b6121a6878360030154611b8290919063ffffffff16565b82600301819055506121c8878460040160020154611b8290919063ffffffff16565b8360040160020181905550600190505b6121e38a8983612d63565b612222576040517f08c379a000000000000000000000000000000000000000000000000000000000815260040161221990614e98565b60405180910390fd5b600060028b8a8a60405160200161223c9493929190614ec7565b60405160208183030381529060405290506122578a826133d7565b7fe1fa2efc5f72fa8fb0b4e79b1e23fc87140dc47e46a4b3482f7989a59a0b0d108b8b8b8b60405161228c9493929190614d9b565b60405180910390a15050505050505050505050565b8382600060066000848152602001908152602001600020905060006122dd82600401600201548360000160020154611b8290919063ffffffff16565b11156123625760006122ee84610efe565b90506123586123456201518061233761016d61232961231a886010015442612d4d90919063ffffffff16565b87611b9890919063ffffffff16565b611bae90919063ffffffff16565b611bae90919063ffffffff16565b83600f0154611b8290919063ffffffff16565b82600f0181905550505b600073ffffffffffffffffffffffffffffffffffffffff168273ffffffffffffffffffffffffffffffffffffffff16146124d8576000600760008473ffffffffffffffffffffffffffffffffffffffff1673ffffffffffffffffffffffffffffffffffffffff1681526020019081526020016000206000858152602001908152602001600020905061244b612438670de0b6b3a764000061242a846002015461241c866006015488600f0154612d4d90919063ffffffff16565b611b9890919063ffffffff16565b611bae90919063ffffffff16565b8260040154611b8290919063ffffffff16565b816004018190555081600f015481600601819055506124c16124ae670de0b6b3a76400006124a08460030154612492866007015488600f0154612d4d90919063ffffffff16565b611b9890919063ffffffff16565b611bae90919063ffffffff16565b8260050154611b8290919063ffffffff16565b816005018190555081600f01548160070181905550505b42816010018190555060006006600089815260200190815260200160002090506000600760008873ffffffffffffffffffffffffffffffffffffffff1673ffffffffffffffffffffffffffffffffffffffff16815260200190815260200160002060008a81526020019081526020016000209050600080600084600e0160009054906101000a900461ffff1661ffff168b61ffff16141561261d5788846000015410156125ba576040517f08c379a00000000000000000000000000000000000000000000000000000000081526004016125b190614f58565b60405180910390fd5b6125d1898560000154612d4d90919063ffffffff16565b846000018190555061260c85600001600301546125fe87600001600101548c611b9890919063ffffffff16565b611bae90919063ffffffff16565b9250846000019150600190506126c3565b8884600101541015612664576040517f08c379a000000000000000000000000000000000000000000000000000000000815260040161265b90614f58565b60405180910390fd5b61267b838560010154612d4d90919063ffffffff16565b84600101819055506126b685600401600301546126a887600401600101548c611b9890919063ffffffff16565b611bae90919063ffffffff16565b9250846004019150600090505b6126da898360010154612d4d90919063ffffffff16565b82600301819055506126f9838360010154612d4d90919063ffffffff16565b826001018190555061270c8c8b83612d63565b61274b576040517f08c379a000000000000000000000000000000000000000000000000000000000815260040161274290614e98565b60405180910390fd5b600060048d8c866040516020016127659493929190614ec7565b60405160208183030381529060405290506127808c826133d7565b7f6f7e88dc3a6165b3bdc53ec4e078280c36a91f18479d40aaa21967181c176f6e8d8d8d8d886040516127b7959493929190614f78565b60405180910390a150505050505050505050505050565b83826000600660008481526020019081526020016000209050600061280a82600401600201548360000160020154611b8290919063ffffffff16565b111561288f57600061281b84610efe565b90506128856128726201518061286461016d612856612847886010015442612d4d90919063ffffffff16565b87611b9890919063ffffffff16565b611bae90919063ffffffff16565b611bae90919063ffffffff16565b83600f0154611b8290919063ffffffff16565b82600f0181905550505b600073ffffffffffffffffffffffffffffffffffffffff168273ffffffffffffffffffffffffffffffffffffffff1614612a05576000600760008473ffffffffffffffffffffffffffffffffffffffff1673ffffffffffffffffffffffffffffffffffffffff16815260200190815260200160002060008581526020019081526020016000209050612978612965670de0b6b3a76400006129578460020154612949866006015488600f0154612d4d90919063ffffffff16565b611b9890919063ffffffff16565b611bae90919063ffffffff16565b8260040154611b8290919063ffffffff16565b816004018190555081600f015481600601819055506129ee6129db670de0b6b3a76400006129cd84600301546129bf866007015488600f0154612d4d90919063ffffffff16565b611b9890919063ffffffff16565b611bae90919063ffffffff16565b8260050154611b8290919063ffffffff16565b816005018190555081600f01548160070181905550505b42816010018190555060006006600089815260200190815260200160002090506000600760008873ffffffffffffffffffffffffffffffffffffffff1673ffffffffffffffffffffffffffffffffffffffff16815260200190815260200160002060008a8152602001908152602001600020905060008060008085600e0160009054906101000a900461ffff1661ffff168c61ffff161415612bb257612abc85600201548660040154611b8290919063ffffffff16565b9350838a1115612b025784600201549050846004015491506000856004018190555060008560020181905550612afb848b612d4d90919063ffffffff16565b9250612bad565b612b45612b2086600401548760020154611b8290919063ffffffff16565b612b3787600201548d611b9890919063ffffffff16565b611bae90919063ffffffff16565b9050612b5a818b612d4d90919063ffffffff16565b9150612b73818660020154612d4d90919063ffffffff16565b8560020181905550612ba4612b91828c612d4d90919063ffffffff16565b8660040154612d4d90919063ffffffff16565b85600401819055505b612cbf565b612bcd85600301548660050154611b8290919063ffffffff16565b9350838a1115612c135784600301549050846005015491506000856005018190555060008560030181905550612c0c848b612d4d90919063ffffffff16565b9250612cbe565b612c56612c3186600501548760030154611b8290919063ffffffff16565b612c4887600301548d611b9890919063ffffffff16565b611bae90919063ffffffff16565b9050612c6b818b612d4d90919063ffffffff16565b9150612c84818660030154612d4d90919063ffffffff16565b8560030181905550612cb5612ca2828c612d4d90919063ffffffff16565b8660050154612d4d90919063ffffffff16565b85600501819055505b5b6000831115612cff57600060028e8d86604051602001612ce29493929190614ec7565b6040516020818303038152906040529050612cfd8d826133d7565b505b7f3ce5ca18b8e5fc5dc6008aadb1bbdd4f9e35eb3fac99692197df0262ca3f07448d8d8d8486604051612d36959493929190614f78565b60405180910390a150505050505050505050505050565b60008183612d5b9190614fcb565b905092915050565b600080600660008681526020019081526020016000206040518060e001604052908160008201604051806080016040529081600082018054612da49061444b565b80601f0160208091040260200160405190810160405280929190818152602001828054612dd09061444b565b8015612e1d5780601f10612df257610100808354040283529160200191612e1d565b820191906000526020600020905b815481529060010190602001808311612e0057829003601f168201915b505050505081526020016001820154815260200160028201548152602001600382015481525050815260200160048201604051806080016040529081600082018054612e689061444b565b80601f0160208091040260200160405190810160405280929190818152602001828054612e949061444b565b8015612ee15780601f10612eb657610100808354040283529160200191612ee1565b820191906000526020600020905b815481529060010190602001808311612ec457829003601f168201915b5050505050815260200160018201548152602001600282015481526020016003820154815250508152602001600882016040518060c001604052908160008201548152602001600182015481526020016002820154815260200160038201548152602001600482015481526020016005820154815250508152602001600e820160009054906101000a900461ffff1661ffff1661ffff168152602001600e820160029054906101000a900461ffff1661ffff1661ffff168152602001600f820154815260200160108201548152505090506000600760008673ffffffffffffffffffffffffffffffffffffffff1673ffffffffffffffffffffffffffffffffffffffff1681526020019081526020016000206000878152602001908152602001600020604051806101000160405290816000820154815260200160018201548152602001600282015481526020016003820154815260200160048201548152602001600582015481526020016006820154815260200160078201548152505090506000600560009054906101000a900473ffffffffffffffffffffffffffffffffffffffff1673ffffffffffffffffffffffffffffffffffffffff1663524f38898460000151600001516040518263ffffffff1660e01b81526004016130c79190614fff565b60206040518083038186803b1580156130df57600080fd5b505afa1580156130f3573d6000803e3d6000fd5b505050506040513d601f19601f820116820180604052508101906131179190615021565b90506000600560009054906101000a900473ffffffffffffffffffffffffffffffffffffffff1673ffffffffffffffffffffffffffffffffffffffff1663524f38898560200151600001516040518263ffffffff1660e01b815260040161317e9190614fff565b60206040518083038186803b15801561319657600080fd5b505afa1580156131aa573d6000803e3d6000fd5b505050506040513d601f19601f820116820180604052508101906131ce9190615021565b905085156132d55760006132118560000151606001516132038760000151602001518760000151611b9890919063ffffffff16565b611bae90919063ffffffff16565b90506000613242670de0b6b3a76400006132348685611b9890919063ffffffff16565b611bae90919063ffffffff16565b9050600061328d670de0b6b3a764000061327f866132718a60a001518b60600151611b8290919063ffffffff16565b611b9890919063ffffffff16565b611bae90919063ffffffff16565b9050806132c5670de0b6b3a76400006132b78a604001516080015186611b9890919063ffffffff16565b611bae90919063ffffffff16565b10159750505050505050506133d0565b60006133108560200151606001516133028760200151602001518760200151611b9890919063ffffffff16565b611bae90919063ffffffff16565b90506000613341670de0b6b3a76400006133338585611b9890919063ffffffff16565b611bae90919063ffffffff16565b9050600061338c670de0b6b3a764000061337e876133708a608001518b60400151611b8290919063ffffffff16565b611b9890919063ffffffff16565b611bae90919063ffffffff16565b9050806133c4670de0b6b3a76400006133b68a604001516080015186611b9890919063ffffffff16565b611bae90919063ffffffff16565b10159750505050505050505b9392505050565b60007f000000000000000000000000000000000000000000000000000000000000000073ffffffffffffffffffffffffffffffffffffffff166340a7bb1084308560006040518563ffffffff1660e01b81526004016134399493929190615074565b604080518083038186803b15801561345057600080fd5b505afa158015613464573d6000803e3d6000fd5b505050506040513d601f19601f8201168201806040525081019061348891906150d3565b5090506134a88383303060405180602001604052806000815250866134ad565b505050565b6000600160008861ffff1661ffff16815260200190815260200160002080546134d59061444b565b80601f01602080910402602001604051908101604052809291908181526020018280546135019061444b565b801561354e5780601f106135235761010080835404028352916020019161354e565b820191906000526020600020905b81548152906001019060200180831161353157829003601f168201915b5050505050905060008151141561359a576040517f08c379a000000000000000000000000000000000000000000000000000000000815260040161359190615185565b60405180910390fd5b7f000000000000000000000000000000000000000000000000000000000000000073ffffffffffffffffffffffffffffffffffffffff1663c58031008389848a8a8a8a6040518863ffffffff1660e01b81526004016135fe969594939291906151b4565b6000604051808303818588803b15801561361757600080fd5b505af115801561362b573d6000803e3d6000fd5b505050505050505050505050565b8280546136459061444b565b90600052602060002090601f01602090048101928261366757600085556136ae565b82601f1061368057805160ff19168380011785556136ae565b828001600101855582156136ae579182015b828111156136ad578251825591602001919060010190613692565b5b5090506136bb9190613745565b5090565b8280546136cb9061444b565b90600052602060002090601f0160209004810192826136ed5760008555613734565b82601f1061370657803560ff1916838001178555613734565b82800160010185558215613734579182015b82811115613733578235825591602001919060010190613718565b5b5090506137419190613745565b5090565b5b8082111561375e576000816000905550600101613746565b5090565b6000604051905090565b600080fd5b600080fd5b600061ffff82169050919050565b61378d81613776565b811461379857600080fd5b50565b6000813590506137aa81613784565b92915050565b600080fd5b600080fd5b6000601f19601f8301169050919050565b7f4e487b7100000000000000000000000000000000000000000000000000000000600052604160045260246000fd5b613803826137ba565b810181811067ffffffffffffffff82111715613822576138216137cb565b5b80604052505050565b6000613835613762565b905061384182826137fa565b919050565b600067ffffffffffffffff821115613861576138606137cb565b5b61386a826137ba565b9050602081019050919050565b82818337600083830152505050565b600061389961389484613846565b61382b565b9050828152602081018484840111156138b5576138b46137b5565b5b6138c0848285613877565b509392505050565b600082601f8301126138dd576138dc6137b0565b5b81356138ed848260208601613886565b91505092915050565b600067ffffffffffffffff82169050919050565b613913816138f6565b811461391e57600080fd5b50565b6000813590506139308161390a565b92915050565b600080600080608085870312156139505761394f61376c565b5b600061395e8782880161379b565b945050602085013567ffffffffffffffff81111561397f5761397e613771565b5b61398b878288016138c8565b935050604061399c87828801613921565b925050606085013567ffffffffffffffff8111156139bd576139bc613771565b5b6139c9878288016138c8565b91505092959194509250565b6000602082840312156139eb576139ea61376c565b5b60006139f98482850161379b565b91505092915050565b6000819050919050565b613a1581613a02565b82525050565b6000602082019050613a306000830184613a0c565b92915050565b600067ffffffffffffffff821115613a5157613a506137cb565b5b613a5a826137ba565b9050602081019050919050565b6000613a7a613a7584613a36565b61382b565b905082815260208101848484011115613a9657613a956137b5565b5b613aa1848285613877565b509392505050565b600082601f830112613abe57613abd6137b0565b5b8135613ace848260208601613a67565b91505092915050565b60008060008060808587031215613af157613af061376c565b5b6000613aff8782880161379b565b9450506020613b108782880161379b565b935050604085013567ffffffffffffffff811115613b3157613b30613771565b5b613b3d87828801613aa9565b925050606085013567ffffffffffffffff811115613b5e57613b5d613771565b5b613b6a87828801613aa9565b91505092959194509250565b600080fd5b600080fd5b60008083601f840112613b9657613b956137b0565b5b8235905067ffffffffffffffff811115613bb357613bb2613b76565b5b602083019150836001820283011115613bcf57613bce613b7b565b5b9250929050565b600080600060408486031215613bef57613bee61376c565b5b6000613bfd8682870161379b565b935050602084013567ffffffffffffffff811115613c1e57613c1d613771565b5b613c2a86828701613b80565b92509250509250925092565b60008115159050919050565b613c4b81613c36565b82525050565b6000602082019050613c666000830184613c42565b92915050565b600073ffffffffffffffffffffffffffffffffffffffff82169050919050565b6000613c9782613c6c565b9050919050565b613ca781613c8c565b8114613cb257600080fd5b50565b600081359050613cc481613c9e565b92915050565b613cd381613a02565b8114613cde57600080fd5b50565b600081359050613cf081613cca565b92915050565b60008060408385031215613d0d57613d0c61376c565b5b6000613d1b85828601613cb5565b9250506020613d2c85828601613ce1565b9150509250929050565b600061010082019050613d4c600083018b613a0c565b613d59602083018a613a0c565b613d666040830189613a0c565b613d736060830188613a0c565b613d806080830187613a0c565b613d8d60a0830186613a0c565b613d9a60c0830185613a0c565b613da760e0830184613a0c565b9998505050505050505050565b600080600060608486031215613dcd57613dcc61376c565b5b6000613ddb8682870161379b565b935050602084013567ffffffffffffffff811115613dfc57613dfb613771565b5b613e08868287016138c8565b9250506040613e1986828701613921565b9150509250925092565b6000819050919050565b613e3681613e23565b82525050565b6000602082019050613e516000830184613e2d565b92915050565b600081519050919050565b600082825260208201905092915050565b60005b83811015613e91578082015181840152602081019050613e76565b83811115613ea0576000848401525b50505050565b6000613eb182613e57565b613ebb8185613e62565b9350613ecb818560208601613e73565b613ed4816137ba565b840191505092915050565b60006020820190508181036000830152613ef98184613ea6565b905092915050565b6000819050919050565b6000613f26613f21613f1c84613c6c565b613f01565b613c6c565b9050919050565b6000613f3882613f0b565b9050919050565b6000613f4a82613f2d565b9050919050565b613f5a81613f3f565b82525050565b6000602082019050613f756000830184613f51565b92915050565b613f8481613c8c565b82525050565b6000602082019050613f9f6000830184613f7b565b92915050565b600060208284031215613fbb57613fba61376c565b5b6000613fc984828501613ce1565b91505092915050565b6000613fdd82613f2d565b9050919050565b613fed81613fd2565b82525050565b60006020820190506140086000830184613fe4565b92915050565b600080600080600080600060e0888a03121561402d5761402c61376c565b5b600061403b8a828b01613ce1565b975050602061404c8a828b01613ce1565b965050604061405d8a828b01613ce1565b955050606061406e8a828b01613ce1565b945050608061407f8a828b01613ce1565b93505060a06140908a828b01613ce1565b92505060c06140a18a828b01613ce1565b91505092959891949750929550565b6000806000806000608086880312156140cc576140cb61376c565b5b60006140da8882890161379b565b95505060206140eb8882890161379b565b94505060406140fc88828901613ce1565b935050606086013567ffffffffffffffff81111561411d5761411c613771565b5b61412988828901613b80565b92509250509295509295909350565b60006020828403121561414e5761414d61376c565b5b600061415c84828501613cb5565b91505092915050565b6000806000806080858703121561417f5761417e61376c565b5b600061418d8782880161379b565b945050602061419e8782880161379b565b93505060406141af87828801613cb5565b92505060606141c087828801613ce1565b91505092959194509250565b600081519050919050565b600082825260208201905092915050565b60006141f3826141cc565b6141fd81856141d7565b935061420d818560208601613e73565b614216816137ba565b840191505092915050565b61422a81613a02565b82525050565b6000608083016000830151848203600086015261424d82826141e8565b91505060208301516142626020860182614221565b5060408301516142756040860182614221565b5060608301516142886060860182614221565b508091505092915050565b60c0820160008201516142a96000850182614221565b5060208201516142bc6020850182614221565b5060408201516142cf6040850182614221565b5060608201516142e26060850182614221565b5060808201516142f56080850182614221565b5060a082015161430860a0850182614221565b50505050565b61431781613776565b82525050565b6000610180820190508181036000830152614338818a614230565b9050818103602083015261434c8189614230565b905061435b6040830188614293565b61436961010083018761430e565b61437761012083018661430e565b614385610140830185613a0c565b614393610160830184613a0c565b98975050505050505050565b600082825260208201905092915050565b7f4c7a4170703a20696e76616c696420656e64706f696e742063616c6c65720000600082015250565b60006143e6601e8361439f565b91506143f1826143b0565b602082019050919050565b60006020820190508181036000830152614415816143d9565b9050919050565b7f4e487b7100000000000000000000000000000000000000000000000000000000600052602260045260246000fd5b6000600282049050600182168061446357607f821691505b602082108114156144775761447661441c565b5b50919050565b7f4c7a4170703a20696e76616c696420736f757263652073656e64696e6720636f60008201527f6e74726163740000000000000000000000000000000000000000000000000000602082015250565b60006144d960268361439f565b91506144e48261447d565b604082019050919050565b60006020820190508181036000830152614508816144cc565b9050919050565b6000602082019050614524600083018461430e565b92915050565b6000614535826141cc565b61453f818561439f565b935061454f818560208601613e73565b614558816137ba565b840191505092915050565b600060a082019050614578600083018861430e565b614585602083018761430e565b8181036040830152614597818661452a565b905081810360608301526145ab818561452a565b90506145ba6080830184613a0c565b9695505050505050565b7f4e487b7100000000000000000000000000000000000000000000000000000000600052601160045260246000fd5b60006145fe82613a02565b91507fffffffffffffffffffffffffffffffffffffffffffffffffffffffffffffffff821415614631576146306145c4565b5b600182019050919050565b600081905092915050565b6000614653838561463c565b9350614660838584613877565b82840190509392505050565b6000614679828486614647565b91508190509392505050565b60006146918385613e62565b935061469e838584613877565b6146a7836137ba565b840190509392505050565b60006040820190506146c7600083018661430e565b81810360208301526146da818486614685565b9050949350505050565b7f4e6f6e626c6f636b696e674c7a4170703a2063616c6c6572206d75737420626560008201527f204c7a4170700000000000000000000000000000000000000000000000000000602082015250565b600061474060268361439f565b915061474b826146e4565b604082019050919050565b6000602082019050818103600083015261476f81614733565b9050919050565b7f436c69656e74206e6f7420657869737400000000000000000000000000000000600082015250565b60006147ac60108361439f565b91506147b782614776565b602082019050919050565b600060208201905081810360008301526147db8161479f565b9050919050565b60006080820190506147f7600083018861430e565b614804602083018761430e565b6148116040830186613a0c565b8181036060830152614824818486614685565b90509695505050505050565b600061483b82613e57565b614845818561463c565b9350614855818560208601613e73565b80840191505092915050565b600061486d8284614830565b915081905092915050565b7f4e6f6e626c6f636b696e674c7a4170703a206e6f2073746f726564206d65737360008201527f6167650000000000000000000000000000000000000000000000000000000000602082015250565b60006148d460238361439f565b91506148df82614878565b604082019050919050565b60006020820190508181036000830152614903816148c7565b9050919050565b7f4e6f6e626c6f636b696e674c7a4170703a20696e76616c6964207061796c6f6160008201527f6400000000000000000000000000000000000000000000000000000000000000602082015250565b600061496660218361439f565b91506149718261490a565b604082019050919050565b6000602082019050818103600083015261499581614959565b9050919050565b7f4f776e61626c653a206e6577206f776e657220697320746865207a65726f206160008201527f6464726573730000000000000000000000000000000000000000000000000000602082015250565b60006149f860268361439f565b9150614a038261499c565b604082019050919050565b60006020820190508181036000830152614a27816149eb565b9050919050565b6000608082019050614a43600083018761430e565b614a50602083018661430e565b614a5d6040830185613f7b565b614a6a6060830184613a0c565b95945050505050565b6000614a86614a8184613846565b61382b565b905082815260208101848484011115614aa257614aa16137b5565b5b614aad848285613e73565b509392505050565b600082601f830112614aca57614ac96137b0565b5b8151614ada848260208601614a73565b91505092915050565b600060208284031215614af957614af861376c565b5b600082015167ffffffffffffffff811115614b1757614b16613771565b5b614b2384828501614ab5565b91505092915050565b600060ff82169050919050565b614b4281614b2c565b8114614b4d57600080fd5b50565b600081519050614b5f81614b39565b92915050565b600081519050614b7481613cca565b92915050565b6000614b8582613c6c565b9050919050565b614b9581614b7a565b8114614ba057600080fd5b50565b600081519050614bb281614b8c565b92915050565b60008060008060808587031215614bd257614bd161376c565b5b6000614be087828801614b50565b9450506020614bf187828801614b65565b9350506040614c0287828801614ba3565b9250506060614c1387828801614b65565b91505092959194509250565b7f4f776e61626c653a2063616c6c6572206973206e6f7420746865206f776e6572600082015250565b6000614c5560208361439f565b9150614c6082614c1f565b602082019050919050565b60006020820190508181036000830152614c8481614c48565b9050919050565b6000614c9682613a02565b9150614ca183613a02565b9250827fffffffffffffffffffffffffffffffffffffffffffffffffffffffffffffffff03821115614cd657614cd56145c4565b5b828201905092915050565b6000614cec82613a02565b9150614cf783613a02565b9250817fffffffffffffffffffffffffffffffffffffffffffffffffffffffffffffffff0483118215151615614d3057614d2f6145c4565b5b828202905092915050565b7f4e487b7100000000000000000000000000000000000000000000000000000000600052601260045260246000fd5b6000614d7582613a02565b9150614d8083613a02565b925082614d9057614d8f614d3b565b5b828204905092915050565b6000608082019050614db06000830187613a0c565b614dbd602083018661430e565b614dca6040830185613f7b565b614dd76060830184613a0c565b95945050505050565b7f4e6f20656e6f756768206c697175696469747900000000000000000000000000600082015250565b6000614e1660138361439f565b9150614e2182614de0565b602082019050919050565b60006020820190508181036000830152614e4581614e09565b9050919050565b7f4865616c746820636865636b206661696c656400000000000000000000000000600082015250565b6000614e8260138361439f565b9150614e8d82614e4c565b602082019050919050565b60006020820190508181036000830152614eb181614e75565b9050919050565b614ec181614b2c565b82525050565b6000608082019050614edc6000830187614eb8565b614ee96020830186613a0c565b614ef66040830185613f7b565b614f036060830184613a0c565b95945050505050565b7f4e6f20656e6f7567682073686172650000000000000000000000000000000000600082015250565b6000614f42600f8361439f565b9150614f4d82614f0c565b602082019050919050565b60006020820190508181036000830152614f7181614f35565b9050919050565b600060a082019050614f8d6000830188613a0c565b614f9a602083018761430e565b614fa76040830186613f7b565b614fb46060830185613a0c565b614fc16080830184613a0c565b9695505050505050565b6000614fd682613a02565b9150614fe183613a02565b925082821015614ff457614ff36145c4565b5b828203905092915050565b60006020820190508181036000830152615019818461452a565b905092915050565b6000602082840312156150375761503661376c565b5b600061504584828501614b65565b91505092915050565b50565b600061505e600083613e62565b91506150698261504e565b600082019050919050565b600060a082019050615089600083018761430e565b6150966020830186613f7b565b81810360408301526150a88185613ea6565b90506150b76060830184613c42565b81810360808301526150c881615051565b905095945050505050565b600080604083850312156150ea576150e961376c565b5b60006150f885828601614b65565b925050602061510985828601614b65565b9150509250929050565b7f4c7a4170703a2064657374696e6174696f6e20636861696e206973206e6f742060008201527f61207472757374656420736f7572636500000000000000000000000000000000602082015250565b600061516f60308361439f565b915061517a82615113565b604082019050919050565b6000602082019050818103600083015261519e81615162565b9050919050565b6151ae81614b7a565b82525050565b600060c0820190506151c9600083018961430e565b81810360208301526151db8188613ea6565b905081810360408301526151ef8187613ea6565b90506151fe60608301866151a5565b61520b6080830185613f7b565b81810360a083015261521d8184613ea6565b905097965050505050505056fea2646970667358221220107fcdd4803f0192d1409fcf03c51fd77f6f328a0f21b01a5cb12367900b01f764736f6c63430008090033",
  "linkReferences": {},
  "deployedLinkReferences": {}
}